{
  "contractName": "SensorStorage",
  "abi": [
    {
      "anonymous": false,
      "inputs": [
        {
          "indexed": false,
          "internalType": "uint256",
          "name": "timestamp",
          "type": "uint256"
        },
        {
          "indexed": false,
          "internalType": "string",
          "name": "sensorId",
          "type": "string"
        },
        {
          "indexed": false,
          "internalType": "string",
          "name": "dataHash",
          "type": "string"
        }
      ],
      "name": "DataStored",
      "type": "event"
    },
    {
      "inputs": [
        {
          "internalType": "uint256",
          "name": "",
          "type": "uint256"
        }
      ],
      "name": "records",
      "outputs": [
        {
          "internalType": "uint256",
          "name": "timestamp",
          "type": "uint256"
        },
        {
          "internalType": "string",
          "name": "sensorId",
          "type": "string"
        },
        {
          "internalType": "string",
          "name": "dataHash",
          "type": "string"
        }
      ],
      "stateMutability": "view",
      "type": "function",
      "constant": true
    },
    {
      "inputs": [
        {
          "internalType": "string",
          "name": "sensorId",
          "type": "string"
        },
        {
          "internalType": "string",
          "name": "dataHash",
          "type": "string"
        }
      ],
      "name": "storeData",
      "outputs": [],
      "stateMutability": "nonpayable",
      "type": "function"
    },
    {
      "inputs": [],
      "name": "getRecordCount",
      "outputs": [
        {
          "internalType": "uint256",
          "name": "",
          "type": "uint256"
        }
      ],
      "stateMutability": "view",
      "type": "function",
      "constant": true
    },
    {
      "inputs": [
        {
          "internalType": "uint256",
          "name": "index",
          "type": "uint256"
        }
      ],
      "name": "getRecord",
      "outputs": [
        {
          "internalType": "uint256",
          "name": "",
          "type": "uint256"
        },
        {
          "internalType": "string",
          "name": "",
          "type": "string"
        },
        {
          "internalType": "string",
          "name": "",
          "type": "string"
        }
      ],
      "stateMutability": "view",
      "type": "function",
      "constant": true
    }
  ],
  "bytecode": "0x608060405234801561000f575f80fd5b50610b448061001d5f395ff3fe608060405234801561000f575f80fd5b506004361061004a575f3560e01c806303e9e6091461004e57806334461067146100805780634ece5b4c146100b2578063ca267f28146100ce575b5f80fd5b610068600480360381019061006391906104ee565b6100ec565b604051610077939291906105b2565b60405180910390f35b61009a600480360381019061009591906104ee565b6102a8565b6040516100a9939291906105b2565b60405180910390f35b6100cc60048036038101906100c79190610721565b6103e8565b005b6100d661049f565b6040516100e39190610797565b60405180910390f35b5f6060805f805490508410610136576040517f08c379a000000000000000000000000000000000000000000000000000000000815260040161012d906107fa565b60405180910390fd5b5f80858154811061014a57610149610818565b5b905f5260205f2090600302016040518060600160405290815f820154815260200160018201805461017a90610872565b80601f01602080910402602001604051908101604052809291908181526020018280546101a690610872565b80156101f15780601f106101c8576101008083540402835291602001916101f1565b820191905f5260205f20905b8154815290600101906020018083116101d457829003601f168201915b5050505050815260200160028201805461020a90610872565b80601f016020809104026020016040519081016040528092919081815260200182805461023690610872565b80156102815780601f1061025857610100808354040283529160200191610281565b820191905f5260205f20905b81548152906001019060200180831161026457829003601f168201915b5050505050815250509050805f015181602001518260400151935093509350509193909250565b5f81815481106102b6575f80fd5b905f5260205f2090600302015f91509050805f0154908060010180546102db90610872565b80601f016020809104026020016040519081016040528092919081815260200182805461030790610872565b80156103525780601f1061032957610100808354040283529160200191610352565b820191905f5260205f20905b81548152906001019060200180831161033557829003601f168201915b50505050509080600201805461036790610872565b80601f016020809104026020016040519081016040528092919081815260200182805461039390610872565b80156103de5780601f106103b5576101008083540402835291602001916103de565b820191905f5260205f20905b8154815290600101906020018083116103c157829003601f168201915b5050505050905083565b5f604051806060016040528042815260200184815260200183815250908060018154018082558091505060019003905f5260205f2090600302015f909190919091505f820151815f015560208201518160010190816104479190610a3f565b50604082015181600201908161045d9190610a3f565b5050507fd9e9e143ccff5989bb8282525cabad6fdd8f4f68398b457373311b9bd9093dce428383604051610493939291906105b2565b60405180910390a15050565b5f8080549050905090565b5f604051905090565b5f80fd5b5f80fd5b5f819050919050565b6104cd816104bb565b81146104d7575f80fd5b50565b5f813590506104e8816104c4565b92915050565b5f60208284031215610503576105026104b3565b5b5f610510848285016104da565b91505092915050565b610522816104bb565b82525050565b5f81519050919050565b5f82825260208201905092915050565b5f5b8381101561055f578082015181840152602081019050610544565b5f8484015250505050565b5f601f19601f8301169050919050565b5f61058482610528565b61058e8185610532565b935061059e818560208601610542565b6105a78161056a565b840191505092915050565b5f6060820190506105c55f830186610519565b81810360208301526105d7818561057a565b905081810360408301526105eb818461057a565b9050949350505050565b5f80fd5b5f80fd5b7f4e487b71000000000000000000000000000000000000000000000000000000005f52604160045260245ffd5b6106338261056a565b810181811067ffffffffffffffff82111715610652576106516105fd565b5b80604052505050565b5f6106646104aa565b9050610670828261062a565b919050565b5f67ffffffffffffffff82111561068f5761068e6105fd565b5b6106988261056a565b9050602081019050919050565b828183375f83830152505050565b5f6106c56106c084610675565b61065b565b9050828152602081018484840111156106e1576106e06105f9565b5b6106ec8482856106a5565b509392505050565b5f82601f830112610708576107076105f5565b5b81356107188482602086016106b3565b91505092915050565b5f8060408385031215610737576107366104b3565b5b5f83013567ffffffffffffffff811115610754576107536104b7565b5b610760858286016106f4565b925050602083013567ffffffffffffffff811115610781576107806104b7565b5b61078d858286016106f4565b9150509250929050565b5f6020820190506107aa5f830184610519565b92915050565b7f496e646578206f7574206f662072616e676500000000000000000000000000005f82015250565b5f6107e4601283610532565b91506107ef826107b0565b602082019050919050565b5f6020820190508181035f830152610811816107d8565b9050919050565b7f4e487b71000000000000000000000000000000000000000000000000000000005f52603260045260245ffd5b7f4e487b71000000000000000000000000000000000000000000000000000000005f52602260045260245ffd5b5f600282049050600182168061088957607f821691505b60208210810361089c5761089b610845565b5b50919050565b5f819050815f5260205f209050919050565b5f6020601f8301049050919050565b5f82821b905092915050565b5f600883026108fe7fffffffffffffffffffffffffffffffffffffffffffffffffffffffffffffffff826108c3565b61090886836108c3565b95508019841693508086168417925050509392505050565b5f819050919050565b5f61094361093e610939846104bb565b610920565b6104bb565b9050919050565b5f819050919050565b61095c83610929565b6109706109688261094a565b8484546108cf565b825550505050565b5f90565b610984610978565b61098f818484610953565b505050565b5b818110156109b2576109a75f8261097c565b600181019050610995565b5050565b601f8211156109f7576109c8816108a2565b6109d1846108b4565b810160208510156109e0578190505b6109f46109ec856108b4565b830182610994565b50505b505050565b5f82821c905092915050565b5f610a175f19846008026109fc565b1980831691505092915050565b5f610a2f8383610a08565b9150826002028217905092915050565b610a4882610528565b67ffffffffffffffff811115610a6157610a606105fd565b5b610a6b8254610872565b610a768282856109b6565b5f60209050601f831160018114610aa7575f8415610a95578287015190505b610a9f8582610a24565b865550610b06565b601f198416610ab5866108a2565b5f5b82811015610adc57848901518255600182019150602085019450602081019050610ab7565b86831015610af95784890151610af5601f891682610a08565b8355505b6001600288020188555050505b50505050505056fea26469706673582212207a1d6d0ca317e0662d967ca9ba273974eae6801481a63874d0f5d5c9c62bee1064736f6c63430008150033",
  "immutableReferences": {},
  "source": "//SPDX-License-Identifier: MIT\npragma solidity ^0.8.0;\n\ncontract SensorStorage {\n    struct SensorRecord {\n        uint timestamp;\n        string sensorId;\n        string dataHash;\n    }\n\n    SensorRecord[] public records;\n\n    event DataStored(uint timestamp, string sensorId, string dataHash);\n\n    function storeData(string memory sensorId, string memory dataHash) public {\n        records.push(SensorRecord(block.timestamp, sensorId, dataHash));\n        emit DataStored(block.timestamp, sensorId, dataHash);\n    }\n\n    function getRecordCount() public view returns (uint) {\n        return records.length;\n    }\n\n    function getRecord(uint index) public view returns (uint, string memory, string memory) {\n        require(index < records.length, \"Index out of range\");\n        SensorRecord memory rec = records[index];\n        return (rec.timestamp, rec.sensorId, rec.dataHash);\n    }\n}\n",
  "sourcePath": "/home/praganta/mytruffle/contracts/sensorstorage.sol",
  "compiler": {
    "name": "solc",
    "version": "0.8.21+commit.d9974bed.Emscripten.clang"
  },
  "schemaVersion": "3.4.16",
  "updatedAt": "2025-06-21T16:20:38.395Z",
  "networkType": "ethereum",
  "devdoc": {
    "kind": "dev",
    "methods": {},
    "version": 1
  },
  "userdoc": {
    "kind": "user",
    "methods": {},
    "version": 1
  }
}